:020000040800F2
:1000000000280020F1040008C1040008C30400080F
:10001000C5040008C7040008C90400080000000067
:10002000000000000000000000000000CB040008F9
:10003000CD04000800000000CF040008D10400082F
:100040003905000839050008390500083905000898
:100050003905000839050008390500083905000888
:100060003905000839050008390500083905000878
:100070003905000839050008390500083905000868
:100080003905000839050008390500083905000858
:100090003905000839050008390500083905000848
:1000A0003905000839050008390500083905000838
:1000B000D5040008390500080000000039050008D3
:1000C00039050008000000000000000039050008A4
:1000D0000000000039050008E104000800000000ED
:1000E000390500083905000839050008000000003E
:1000F0000000000000000000000000000000000000
:0C01000000000000000000005FF808F1A3
:10010C0010B5054C237833B9044B13B10448AFF345
:10011C0000800123237010BD0C00002000000000A3
:10012C000417000808B5034B1BB103490348AFF390
:10013C00008008BD0000000010000020041700081B
:10014C004021014800F0E3BB0008014000B591B02C
:10015C002422002107A801F0A3FA1422002101A8EF
:10016C0001F09EFA022301210693102306A8CDE983
:10017C000A1300F0D5FB014608B172B6FEE70F2357
:10018C00CDE90300CDE90130059001A800F08AFD0E
:10019C0008B172B6FEE711B05DF804FB7FB500F054
:1001AC00EBF9FFF7D3FF1022002102A801F078FA37
:1001BC004FF0804041F63F72324D0023C5E90002FA
:1001CC000A222846CDE90033C5E90323AB60AB61B5
:1001DC0000F022FF08B172B6FEE74FF480532846B8
:1001EC0002A9029300F04EFF08B172B6FEE7CDE90A
:1001FC0000006946284600F0DFFF044608B172B6DD
:10020C00FEE70146102202A801F04AFA1E4B4FF4F9
:10021C0078719A691D4842F004029A619B692246E2
:10022C0003F004030093009B00F06CFB4FF4787216
:10023C000123CDE902230223144802A90593049457
:10024C0000F08AFA4FF4165311481249C0E90244DF
:10025C00C0E900130C230461C0E90534C46101F04A
:10026C003FF808B172B6FEE7284600F0D7FD00F063
:10027C001DF819223221084800F040F800F074F8FB
:10028C00FCE700BF280000200010024000080140DD
:10029C0070000020004400404D01000808B500F03B
:1002AC007FF8BDE8084000F013B8000000224FF0C2
:1002BC00FF301146054B0532322AC3E90011996013
:1002CC001973186103F11403F5D17047B8000020BD
:1002DC000021094B1A6842B15A6822B91A7B0132C3
:1002EC001A739A680AB1013A5A600531322903F13E
:1002FC001403EFD1704700BFB8000020F0B50546DD
:10030C00002714240B4B384600FB04461E4456F8B9
:10031C00146C0137002EF6D144431D5101B1013943
:10032C00142404FB0033C3E9011200221A73186170
:10033C00F0BD00BFB8000020092810B50ED814235A
:10034C004343084CE158E21841B10021E1504FF011
:10035C00FF33C2E901111173136110BD4FF0FF306F
:10036C00FBE700BFB800002038B500250B4C237B01
:10037C006BB123689847237BA268013BDBB22373E4
:10038C002AB923B9636813B92846FFF7D5FF01359D
:10039C000A2D04F11404EAD138BD00BFB8000020C6
:1003AC00024A13680A331360704700BF80010020B3
:1003BC000E4B82B09A6942F001029A619A6902F07E
:1003CC0001020092009ADA6942F08052DA61DB692C
:1003DC00074A03F080530193019B536823F0E063B9
:1003EC0043F08063536002B0704700BF00100240BE
:1003FC0000000140036807B5B3F1804F15D103F538
:10040C000433DA691C2042F00102DA610022DB6954
:10041C00114603F001030193019B00F0E3F81C204B
:10042C0003B05DF804EB00F00DB903B05DF804FB0C
:10043C0010B5044686B01022002102A801F030F954
:10044C0022681A4B9A422FD103F5E633DA69184821
:10045C0042F40032DA61DA6902A902F40032009245
:10046C00009A9A69002442F004029A619B69042262
:10047C0003F004030193019B0223CDE90223032320
:10048C00059300F069F9082309480DEB0301CDE948
:10049C000234049400F060F926202246214600F034
:1004AC00A1F8262000F0CEF806B010BD00440040A4
:1004BC0000080140FEE7FEE7FEE7FEE7FEE77047B7
:1004CC007047704700F06AB8014800F0D1BC00BF1B
:1004DC0028000020014800F099BF00BF70000020E8
:1004EC0070470000FFF7FCFF0B480C490C4A002337
:1004FC0002E0D458C4500433C4188C42F9D3094ACE
:10050C00094C002301E013600432A242FBD301F03A
:10051C00CFF8FFF743FE7047000000200C000020CE
:10052C00501700080C00002088010020FEE7000096
:10053C0038B50E4B05461A784FF47A73B3FBF2F3C9
:10054C000B4A1068B0FBF3F000F08AF8044658B977
:10055C000F2D09D8024629464FF0FF3000F042F823
:10056C002046044B1D6038BD0120FCE70400002030
:10057C000000002008000020074A08B5136803207B
:10058C0043F01003136000F01BF80F20FFF7D0FFAF
:10059C00FFF70EFF002008BD00200240034A044B69
:1005AC0011681B780B441360704700BF8401002056
:1005BC0004000020014B1868704700BF8401002024
:1005CC0007490302CA6803F4E06322F4E0621204F0
:1005DC00120C134343F0BF6343F40033CB607047FA
:1005EC0000ED00E0154B30B5DC68C4F30224C4F117
:1005FC000703251D042B28BF0423062D4FF0FF35C0
:10060C0094BF0024033C05FA03F321EA0303A5403D
:10061C0022EA0502A340002843EA0203ACBF00F122
:10062C006040074A4FEA0313DBB2ABBF00F56140F1
:10063C0000F00F0080F80033135430BD00ED00E0E3
:10064C0014ED00E0002807DB01234109034A00F008
:10065C001F00834042F82130704700BF00E100E0EA
:10066C000138B0F1807F0BD24FF0E023F021054A26
:10067C00586182F823100020072298611A61704794
:10068C000120704700ED00E090F821200346022A7B
:10069C0006D0042282630120002283F820207047B8
:1006AC000268C06B116821F00E011160116821F015
:1006BC000101116001211A6C01FA02F24260002062
:1006CC0083F82110E8E7000010B590F82130022BD8
:1006DC0003D004238363012010BD03681A6822F041
:1006EC000E021A601A6822F001021A60184A93422C
:1006FC001FD0143293421ED0143293421DD01432A8
:10070C0093421DD0143293421DD0143293420CBF2D
:10071C004FF480134FF080730E4A00245360012372
:10072C0080F82130436B80F820407BB198472046FD
:10073C00D2E70123F0E71023EEE74FF48073EBE7E9
:10074C004FF48053E8E74FF48033E5E71846C3E7EE
:10075C0008000240000002402DE9F74F0022164627
:10076C00614F624BDFF888C1DFF888E10D6835FA1C
:10077C0006F402D103B0BDE8F08F4FF0010808FA7F
:10078C0006F805EA080438EA050576D14D68032D0C
:10079C0007D8013D022D00F28180DFE805F091962B
:1007AC009C00122D00F0948069D8112D00F08A80E5
:1007BC00FF2C98BF82464FF00F0988BF00F1040A46
:1007CC004FEA8605DAF8008088BF203D09FA05FB60
:1007DC0028EA0B0802FA05F548EA0505CAF80050A4
:1007EC00D1F804A01AF0805F47D0BD6926F0030849
:1007FC0045F00105BD61BD6908F1804805F00105B2
:10080C00019508F5803806F0030B019D4FEA8B0B20
:10081C00D8F8085009FA0BF925EA0909364DA8420F
:10082C005DD005F58065A8425BD005F58065A842D2
:10083C000CBF0225032505FA0BF545EA0905C8F896
:10084C0008509D681AF4801F14BF2543A5439D6072
:10085C00DD681AF4001F14BF2543A543DD605D68F5
:10086C001AF4003F14BF2543A5435D601D681AF4BC
:10087C00803F14BF2543A5431D60013676E7DFF8A2
:10088C007C904D450AD015D8754507D0A9F580390F
:10089C004D4503D0A9F580194D4589D18A68E2B13F
:1008AC00012A08BFC0F810804FF0080218BFC0F82A
:1008BC0014807DE7DFF848904D45EFD06545ECE7B7
:1008CC00CA6875E7CA68043272E7CA6808326FE70B
:1008DC00CA680C326CE700226AE7042268E700253C
:1008EC00A9E70125A7E700BF001002400004014062
:1008FC00000032100000121000080140000022100D
:10090C00000031100AB1016170470904FBE7C368AC
:10091C0001EA030221EA030141EA02410161704745
:10092C002DE9F341054638B30368DB0710D42B6877
:10093C009F075ED42B68190700F195802B685A0726
:10094C0000F1C180E869002840F02C81002029E0EA
:10095C00904C636803F00C03042B07D0636803F01E
:10096C000C03082B0AD16368DE0307D523689C03AC
:10097C00DDD56B68002BDAD1012013E06B68B3F581
:10098C00803F12D1236843F480332360FFF712FEBB
:10099C00064623689803CAD4FFF70CFE801B642814
:1009AC00F7D9032002B0BDE8F0819BB9236823F48A
:1009BC0080332360236823F480232360FFF7FAFD40
:1009CC00064623689903B2D5FFF7F4FD801B642813
:1009DC00F7D9E6E7B3F5A02F236803D143F48023BE
:1009EC002360CFE723F480332360236823F4802330
:1009FC00CBE7684C636813F00C0F07D0636803F007
:100A0C000C03082B10D16368DA030DD423689B0701
:100A1C0002D52B69012BAFD123686A6923F0F80347
:100A2C0043EAC203236085E72A695B4B6AB1012262
:100A3C001A60FFF7BFFD064623689F07ECD4FFF74B
:100A4C00B9FD801B0228F7D9ABE71A60FFF7B2FD9E
:100A5C000646236898077FF56DAFFFF7ABFD801B4B
:100A6C000228F6D99DE7AA694A4E4B4BE2B1012206
:100A7C00C3F88024FFF79EFD0446736A9B070DD5CF
:100A8C004FF4FA52454B1B68B3FBF2F3019300BFD2
:100A9C00019B5A1E0192002BF9D14FE7FFF78AFDFB
:100AAC00001B0228E9D97CE7C3F88024FFF782FDFC
:100ABC000446736A9F077FF541AFFFF77BFD001B70
:100ACC000228F6D96DE7334CE369D80024D401270A
:100ADC00E36943F08053E361E36903F080530093CF
:100AEC00009B2F4E3368D90518D5EB68012B26D106
:100AFC00236A43F001032362FFF75CFD41F288385F
:100B0C000646236A9B073FD5002F3FF41BAFE369D2
:100B1C0023F08053E36115E70027E2E7336843F4E1
:100B2C0080733360FFF746FD80463368DA05DCD40A
:100B3C00FFF740FDA0EB08006428F6D931E7ABB90C
:100B4C00236A41F2883823F001032362236A23F0DD
:100B5C0004032362FFF72EFD0646236A9807D3D5BC
:100B6C00FFF728FD801B4045F7D91AE7052B236AB0
:100B7C0003D143F004032362BAE723F00103236299
:100B8C00236A23F00403B6E7FFF714FD801B4045EE
:100B9C00B7D906E7001002400000424200000020D6
:100BAC00007000402A4C636803F00C03082B3ED005
:100BBC000022284B02281A662CD1FFF7FBFC0646B4
:100BCC002368990120D42B6AB3F5803F05D1626864
:100BDC00A96822F400320A436260696A62680B43B6
:100BEC0022F474121343012263601A4B1A66FFF746
:100BFC00E1FC054623689A013FF5A8AEFFF7DAFC45
:100C0C00401B0228F6D9CCE6FFF7D4FC801B022847
:100C1C00D6D9C6E6FFF7CEFC054623689B017FF5C7
:100C2C0095AEFFF7C7FC401B0228F6D9B9E60128A0
:100C3C003FF4B8AE63682A6A03F4803191427FF4C2
:100C4C009BAE6A6A03F4701393423FF47FAE93E653
:100C5C0000100240000042420D4A536803F00C01A0
:100C6C00082912D10B48C3F38341DB03405C09D53F
:100C7C005368094AC3F340435043084AD35CB0FB62
:100C8C00F3F07047064B584370470348704700BF5A
:100C9C00001002403417000800127A0044170008B4
:100CAC0000093D002DE9F0410D46044610B9012024
:100CBC00BDE8F081444A136803F007038B4228D344
:100CCC0021688E0730D4CA0743D43F4A136803F017
:100CDC000703AB4265D822683C4D12F0040F6CD16F
:100CEC00130706D56B68226923F4605343EAC203E9
:100CFC006B60FFF7B1FF6B68354AC3F30313D35C2A
:100D0C00D840344B1860344B1868FFF711FC0020A6
:100D1C00CEE7136823F007030B431360136803F04B
:100D2C0007038B42C3D1CBE7284B11F0040F1EBF36
:100D3C005A6842F4E0625A60080742BF5A6842F4AB
:100D4C0060525A605A68A06822F0F00202435A605E
:100D5C00B9E762681D4E012A33681AD113F4003FBB
:100D6C00A5D0736841F2883823F0030313437360F2
:100D7C00FFF720FC07467368626803F00C03B3EBC3
:100D8C00820FA2D0FFF716FCC01B4045F3D90320FD
:100D9C008EE7022A02D113F0007FE1E713F0020F75
:100DAC00DEE7136823F007032B431360136803F08B
:100DBC000703AB427FF47BAF8DE76B68E16823F4EC
:100DCC00E0630B436B608BE7002002400010024095
:100DDC001C1700080000002008000020044B054AE6
:100DEC005B68C3F30223D35C034A1068D840704796
:100DFC00001002402C17000800000020044B054A8C
:100E0C005B68C3F3C223D35C034A1068D8407047B5
:100E1C00001002402C1700080000002090F83D3014
:100E2C00012B1CD1022380F83D300368DA6842F0B4
:100E3C000102DA600B4A934206D0B3F1804F03D023
:100E4C00A2F59432934204D19A6802F00702062A62
:100E5C0003D01A6842F001021A600020704701208A
:100E6C00704700BF002C01407047704770477047B7
:100E7C00036810B51A69044691070ED5DA68920713
:100E8C000BD56FF002021A61012202779B699B0756
:100E9C0077D0FFF7EAFF0023237723681A695007FE
:100EAC0010D5DA6851070DD56FF004021A610222D1
:100EBC0022779B69204613F4407F68D0FFF7D5FF5B
:100ECC000023237723681A6912070FD5DA681007F5
:100EDC000CD56FF008021A6104222277DB692046D8
:100EEC0099075AD0FFF7C1FF0023237723681A69AB
:100EFC00D20610D5DA68D0060DD56FF010021A6143
:100F0C0008222277DB69204613F4407F4BD0FFF791
:100F1C00ACFF0023237723681A69D10708D5DA6858
:100F2C00D20705D56FF0010220461A61FFF7B6F91A
:100F3C0023681A69100608D5DA68110605D56FF012
:100F4C00800220461A6100F062F923681A69520681
:100F5C0008D5DA68500605D56FF0400220461A61B4
:100F6C00FFF785FF23681A69910622D5DA68920685
:100F7C001FD56FF020022046BDE810401A6100F02A
:100F8C0045B9FFF771FF2046FFF770FF83E7FFF7C6
:100F9C006BFF2046FFF76AFF92E7FFF765FF2046DD
:100FAC00FFF764FFA0E7FFF75FFF2046FFF75EFF48
:100FBC00AFE710BD164A10B59042036805D0B0F1EA
:100FCC00804F02D0134CA04210D14C6823F0700318
:100FDC00904243EA040305D0B0F1804F02D00D4A91
:100FEC00904203D1CA6823F4407313434A6923F037
:100FFC008003134303608B68C3620B688362044BEA
:10100C00984204BF0B6903630123436110BD00BF09
:10101C00002C01400004004010B5044630B390F899
:10102C003D3003F0FF021BB980F83C20FFF7E2F9DA
:10103C000223206884F83D30211DFFF7BBFF0123FC
:10104C00002084F8463084F83E3084F83F3084F831
:10105C00403084F8413084F8423084F8433084F8CE
:10106C00443084F8453084F83D3010BD0120FCE755
:10107C0010B584680A4324F47F4442EA03222243D5
:10108C00826010BD38B590F83C300446012B4FF00F
:10109C00020000F08E80012284F83D00206884F864
:1010AC003C20836823F47F4323F0770383600B6831
:1010BC00602B4FD032D8402B64D016D8202B0DD0BB
:1010CC000AD833F0100109D0012384F83D300023F5
:1010DC0084F83C30104638BD302BF5D1826822F0B4
:1010EC007002134343F0070328E0502BECD14A68FD
:1010FC00CD68016A036A21F00A0123F0010303623F
:10110C0083690A4323F0F00343EA05138361026207
:10111C00836823F0700343F057030FE0B3F5805F4F
:10112C000DD0B3F5005F0CD0702BCDD1CB68D1E9CD
:10113C000121FFF79DFF836843F077038360002252
:10114C00C2E7CB68D1E90121FFF792FF836843F432
:10115C008043F3E7036A026A4D6822F01002C96803
:10116C000262826923F0A00322F4704243EA051361
:10117C0042EA013282610362836823F0700343F018
:10118C006703DBE74A68CD68016A036A21F00A014C
:10119C0023F00103036283690A4323F0F00343EA5B
:1011AC00051383610262836823F0700343F04703E5
:1011BC00C4E702468EE7000030B590F83C200346A9
:1011CC00012A4FF002001ED01A6883F83D005468C3
:1011DC000D6824F070042C43906854600A4CA242B1
:1011EC0006D0B2F1804F03D0A4F59434A24204D1BE
:1011FC00496820F08000014391600122002083F8AF
:10120C003D2083F83C0030BD002C014070477047F6
:10121C00026802F10C0353E8003F23F490730C3284
:10122C0042E8003102680029F2D102F1140353E8BC
:10123C00003F23F0010302F1140C4CE800310029AB
:10124C00F3D1036B012B0BD102F10C0353E8003FDC
:10125C0023F0100302F10C0C4CE800310029F3D1FF
:10126C00202380F8423000230363704710B50446F6
:10127C000368C1681A6922F440520A431A618268F1
:10128C000069D9680243606921F4B05121F00C0166
:10129C0002430A43DA605A69A16922F440720A4394
:1012AC005A610E4A934215D1FFF7A8FD1923434307
:1012BC00626820689200B3FBF2F36422B3FBF2F194
:1012CC0002FB11331B013233B3FBF2F303EB0113BB
:1012DC00836010BDFFF782FDE8E700BF00380140D6
:1012EC0010B5044648B390F8413003F0FF021BB927
:1012FC0080F84020FFF79CF82423226884F84130C2
:10130C00D368204623F40053D360FFF7AFFF236864
:10131C0000201A6922F490421A615A6922F02A02BA
:10132C005A61DA6842F40052DA602023606484F86F
:10133C00413084F84230606310BD0120FCE77047F7
:10134C007047704708B50023406AC385C384FFF714
:10135C00F8FF08BD704790F8423007B5222B42D1F8
:10136C008168836AB1F5805F02683FD10169002909
:10137C003FD15268C2F3080223F8022B8362C38D5B
:10138C00013B9BB2C385002B2DD10268D16821F0A3
:10139C002001D160D16821F48071D160516921F0B4
:1013AC0001015161202280F842204363026B012A23
:1013BC00026828D1036302F10C0353E8003F23F0C9
:1013CC00100302F10C0C4CE800310029F3D1136826
:1013DC00DB0605D501911368019353680193019BBA
:1013EC00818DFFF7B7FF03B05DF804FB39B90169D4
:1013FC0029B95268D2B21A70836A0133BEE75268B7
:10140C0002F07F02F7E7FFF79BFFECE7036873B589
:10141C001A6804461607D9685D6908D1960668D51E
:10142C008D0666D502B0BDE87040FFF794BF05F09D
:10143C00010001F4907505435BD0D60705D5CD05A9
:10144C0042BF636C43F001036364530704D518B1C6
:10145C00636C43F002036364960704D518B1636CA4
:10146C0043F004036364150707D501F0200303431D
:10147C001EBF636C43F008036364636C002B32D0B3
:10148C00920604D58B0602D52046FFF764FF26682A
:10149C0020467369626C03F0400302F0080253EAC1
:1014AC00020522D0FFF7B4FE73695E0618D52268D8
:1014BC0002F1140353E8003F23F04003143242E8D6
:1014CC0000310029F3D1E06B50B1744B4363FFF74B
:1014DC00FBF840B1E06B436B02B0BDE870401847BD
:1014EC002046FFF72EFF02B070BDFFF72AFF6564A0
:1014FC00F9E7206B012840F09480D50640F19180EB
:10150C00C80640F18E80002201921A6801925A6836
:10151C000192019A5A6952064DD5E16B0A685268DC
:10152C0092B2002ADFD0A08D9042DCD9E2858A6984
:10153C00202A36D003F10C0252E8002F22F48072DC
:10154C0003F10C0040E800210029F3D103F114024F
:10155C0052E8002F22F0010203F1140040E80021B0
:10156C000029F3D103F1140252E8002F22F04002BB
:10157C0003F1140040E800210029F3D1202284F863
:10158C004220216303F10C0252E8002F22F01002DA
:10159C0003F10C0040E800210029F3D1E06BFFF7C8
:1015AC0073F802236363E38DA18DC91A89B22046B7
:1015BC00FFF7D0FE97E7E28DE08DA18D80B292B25D
:1015CC00002890D0891A89B200298CD003F10C0222
:1015DC0052E8002F22F4907203F10C0545E800202C
:1015EC000028F3D103F1140252E8002F22F001027B
:1015FC0003F1140545E800200028F3D1202284F8DB
:10160C004220206303F10C0252E8002F22F010025A
:10161C0003F10C0545E800200028F3D10223636395
:10162C00C5E7160628D50D0626D594F84120212AA3
:10163C007FF459AFA168226AB1F5805F17D1216997
:10164C00A9B932F8021BC1F3080159602262E28C7D
:10165C00013A92B2E284002A7FF445AFDA6822F0B4
:10166C008002DA60DA6842F04002DA603BE7511C33
:10167C00216212785A60EAE750067FF534AF4A06C9
:10168C007FF531AFDA68204622F04002DA60202381
:10169C0084F84130FFF753FE25E700BF51130008D3
:1016AC0003460244934200D1704703F8011BF9E74B
:1016BC0070B500260C4D0D4C641BA410A64209D12C
:1016CC0000F01AF800260A4D0A4C641BA410A6421E
:1016DC0005D170BD55F8043B98470136EEE755F837
:1016EC00043B98470136F2E74817000848170008F2
:1016FC00481700084C170008F8B500BFF8BC08BC28
:10170C009E467047F8B500BFF8BC08BC9E467047B3
:10171C000000000000000000010203040607080995
:10172C000000000001020304020304050607080977
:0C173C000A0B0C0D0E0F10100102000033
:041748003101000863
:04174C000D01000883
:0C1750000024F400010000001000000064
:04000005080004F1FA
:00000001FF
