:020000040800F2
:1000000000280020451D0008551C00085B1C000846
:10001000611C0008671C00086D1C0008000000003F
:10002000000000000000000000000000731C000839
:100030007F1C0008000000008B1C0008971C0008B3
:100040008D1D00088D1D00088D1D00088D1D0008E8
:100050008D1D00088D1D00088D1D00088D1D0008D8
:100060008D1D00088D1D00088D1D00088D1D0008C8
:100070008D1D00088D1D00088D1D00088D1D0008B8
:100080008D1D00088D1D00088D1D00088D1D0008A8
:100090008D1D00088D1D00088D1D00088D1D000898
:1000A0008D1D00088D1D00088D1D00088D1D000888
:1000B000A51C00088D1D0008000000008D1D000813
:1000C0008D1D000800000000000000008D1D0008CC
:1000D000000000008D1D0008B91C00080000000091
:1000E0008D1D00088D1D00088D1D000800000000FA
:1000F0000000000000000000000000000000000000
:0C01000000000000000000005FF808F1A3
:10010C0010B5054C237833B9044B13B10448AFF345
:10011C0000800123237010BDA80000200000000007
:10012C00304B000808B5034B1BB103490348AFF330
:10013C00008008BD00000000AC000020304B00081F
:10014C0080B500AF002000F081F90346012B1CD1D3
:10015C0001224FF47C411D4802F0C9F901224FF4F1
:10016C007C711A4802F0C3F9002001F033FC012025
:10017C0001F030FC32220121154801F067FB3222DC
:10018C000121144801F062FB1FE0012000F032FA5B
:10019C00022000F08BFA104B1B68013B0E4A1360D7
:1001AC000E4B1B68013B0D4A13600C4B1B68002B5C
:1001BC000BD10B4B1B68094A1360012001F00AFCA0
:1001CC0064220121074801F041FB80BD0008014079
:1001DC004114000875130008D4000020D80000203A
:1001EC0048000020F501000880B500AF002000F0A9
:1001FC002DF90346012B1CD101224FF47C411F48E1
:10020C0002F075F901224FF47C711C4802F06FF971
:10021C00002001F0DFFB012001F0DCFB3222012188
:10022C00174801F013FB32220121164801F00EFB96
:10023C0023E0012000F0DEF9032000F037FA124B26
:10024C001B68013B104A1360104B1B68013B0F4AA3
:10025C0013600E4B1B68002B0FD10D4B1B680B4A08
:10026C0013600C4B1B68084A1360012001F0B2FBB1
:10027C0064220121084801F0E9FA80BD0008014020
:10028C004114000875130008D4000020D800002089
:10029C004000002044000020A902000880B500AFF7
:1002AC00002000F0D3F80346012B1CD101224FF49F
:1002BC007C411D4802F01BF901224FF47C711A4855
:1002CC0002F015F9002001F085FB012001F082FB02
:1002DC0032220121154801F0B9FA322201211448C9
:1002EC0001F0B4FA1FE0022000F084F9012000F0C4
:1002FC00DDF9104B1B68013B0E4A13600E4B1B685B
:10030C00013B0D4A13600B4B1B68002B0BD10B4BA5
:10031C001B68084A1360012001F05CFB6422012178
:10032C00074801F093FA80BD000801404114000811
:10033C0075130008D4000020D800002048000020CD
:10034C005103000880B500AF002000F07FF8034691
:10035C00012B1CD101224FF47C411F4802F0C7F83D
:10036C0001224FF47C711C4802F0C1F8002001F00E
:10037C0031FB012001F02EFB32220121174801F044
:10038C0065FA32220121164801F060FA23E00320BD
:10039C0000F030F9012000F089F9124B1B68013B89
:1003AC00104A1360104B1B68013B0F4A13600D4B36
:1003BC001B68002B0FD10D4B1B680B4A13600C4BA9
:1003CC001B68084A1360012001F004FB6422012120
:1003DC00084801F03BFA80BD0008014041140008B8
:1003EC0075130008D4000020D80000204400002021
:1003FC00400000204D01000880B500AF104B1B7869
:10040C00002B02D0012B0CD017E00E4B1B680E4AB0
:10041C0012681146184600F075FD094B01221A703E
:10042C000BE0084B1B68084A12681146184600F08E
:10043C0093FD034B00221A7000BF00BF80BD00BFAC
:10044C00D3000020D4000020D800002080B483B05A
:10045C0000AF7860094A7B6852F82330012B06D133
:10046C00064A7B68002142F82310012300E0002398
:10047C0018460C37BD4680BC704700BFC400002036
:10048C0080B483B000AF7860044A7B68012142F8E5
:10049C00231000BF0C37BD4680BC7047C400002041
:1004AC0080B582B000AF00237B6089E0494A7B684D
:1004BC0052F8232048497B6841F82320474A7B683F
:1004CC0052F8232043497B6841F823207B68002B9A
:1004DC000FD1434A7B6852F823309BB219464148EE
:1004EC0001F0EEFF034619463C4A7B6842F82310A4
:1004FC0021E07B68012B0FD1394A7B6852F82330FD
:10050C009BB21946384801F0DBFF03461946334AC3
:10051C007B6842F823100EE0314A7B6852F8233096
:10052C009BB21946304801F0CBFF034619462B4AC3
:10053C007B6842F82310274A7B6852F8232027490E
:10054C007B6851F823309A4237D1224A7B6852F8A3
:10055C00232021497B6851F823309A422DD11E4A21
:10056C007B6852F8232021497B6851F823309A424A
:10057C0015D0194A7B6852F823201C497B6841F836
:10058C0023201A4A7B6852F82330002B15D1184BC4
:10059C004FF4FA721A607868FFF772FF0DE0144B93
:1005AC001B68013B124A1360114B1B68002B04D1D2
:1005BC000E4A7B68012142F823107B6801337B6073
:1005CC007B68022B7FF772AF00BF00BF0837BD46B8
:1005DC0080BD00BF18000020240000200C0000206B
:1005EC0000000020000801400010014030000020F5
:1005FC003C00002080B582B000AF0346FB71FB7954
:10060C00032B4BD801A252F823F000BF2906000897
:10061C0049060008890600086906000801224021E5
:10062C00214801F064FF012220211F4801F05FFFE7
:10063C00012210211C4801F05AFF30E00122402118
:10064C00194801F054FF01222021174801F04FFFF7
:10065C0000221021144801F04AFF20E00122402121
:10066C00114801F044FF002220210F4801F03FFF08
:10067C00012210210C4801F03AFF10E00022402129
:10068C00094801F034FF01222021074801F02FFF17
:10069C0001221021044801F02AFF00E000BF00BF36
:1006AC000837BD4680BD00BF0008014080B582B050
:1006BC0000AF0346FB71FB79032B53D801A252F810
:1006CC0023F000BFE1060008050700084D070008ED
:1006DC002907000801224FF40071254801F007FF9B
:1006EC0001224FF48071224801F001FF0122802188
:1006FC001F4801F0FCFE36E001224FF400711C484B
:10070C0001F0F5FE01224FF48071194801F0EFFE63
:10071C0000228021164801F0EAFE24E001224FF469
:10072C000071134801F0E3FE00224FF48071104871
:10073C0001F0DDFE012280210D4801F0D8FE12E00F
:10074C0000224FF400710A4801F0D1FE01224FF44F
:10075C008071074801F0CBFE01228021044801F092
:10076C00C6FE00E000BF00BF0837BD4680BD00BF1D
:10077C000008014080B582B000AF78607B68092B1F
:10078C0000F2808101A252F823F000BFC1070008DB
:10079C00090800085108000899080008E108000839
:1007AC002909000871090008B9090008010A0008A4
:1007BC00490A000800220121B54801F098FE0022E8
:1007CC000221B34801F093FE00220421B04801F04D
:1007DC008EFE00220821AE4801F089FE0022102175
:1007EC00AB4801F084FE00222021A94801F07FFED5
:1007FC0001224021A64801F07AFE44E101220121A8
:10080C00A34801F074FE00220221A14801F06FFE02
:10081C00002204219E4801F06AFE012208219C4816
:10082C0001F065FE01221021994801F060FE0122C1
:10083C002021974801F05BFE01224021944801F0F1
:10084C0056FE20E100220121914801F050FE0022C9
:10085C0002218F4801F04BFE012204218C4801F04B
:10086C0046FE002208218A4801F041FE0022102198
:10087C00874801F03CFE01222021854801F037FE1B
:10088C0000224021824801F032FEFCE000220121CE
:10089C007F4801F02CFE002202217D4801F027FE4A
:1008AC00002204217A4801F022FE00220821784817
:1008BC0001F01DFE01221021754801F018FE0122E5
:1008CC002021734801F013FE00224021704801F0F2
:1008DC000EFED8E0012201216D4801F008FE002235
:1008EC0002216B4801F003FE00220421684801F04C
:1008FC00FEFD01220821664801F0F9FD01221021BC
:10090C00634801F0F4FD00222021614801F0EFFD65
:10091C00002240215E4801F0EAFDB4E000220121F2
:10092C005B4801F0E4FD01220221594801F0DFFD92
:10093C0000220421564801F0DAFD00220821544817
:10094C0001F0D5FD01221021514801F0D0FD00220B
:10095C0020214F4801F0CBFD002240214C4801F0F2
:10096C00C6FD90E000220121494801F0C0FD0122A2
:10097C000221474801F0BBFD00220421444801F04C
:10098C00B6FD00220821424801F0B1FD00221021E1
:10099C003F4801F0ACFD002220213D4801F0A7FDAD
:1009AC00002240213A4801F0A2FD6CE00022012116
:1009BC00374801F09CFD00220221354801F097FDDB
:1009CC0000220421324801F092FD01220821304816
:1009DC0001F08DFD012210212D4801F088FD01222E
:1009EC0020212B4801F083FD01224021284801F0F1
:1009FC007EFD48E000220121254801F078FD00220F
:100A0C000221234801F073FD00220421204801F04B
:100A1C006EFD002208211E4801F069FD0022102104
:100A2C001B4801F064FD00222021194801F05FFDF4
:100A3C0000224021164801F05AFD24E00022012139
:100A4C00134801F054FD00220221114801F04FFD22
:100A5C00002204210E4801F04AFD002208210C4816
:100A6C0001F045FD01221021094801F040FD002252
:100A7C002021074801F03BFD00224021044801F0F1
:100A8C0036FD00E000BF00BF0837BD4680BD00BF8B
:100A9C00000C014080B582B000AF78607B68092BF8
:100AAC0000F2BC8101A252F823F000BFE10A000859
:100ABC00350B0008890B0008DD0B0008310C000811
:100ACC00850C0008D90C00082D0D0008810D0008BC
:100ADC00D50D000800228021D34801F008FD00222A
:100AEC004FF48071D04801F002FD00224FF40071E8
:100AFC00CD4801F0FCFC00224FF48061CA4801F0A3
:100B0C00F6FC00224FF40061C74801F0F0FC002213
:100B1C004FF48051C44801F0EAFC01224FF400511B
:100B2C00C14801F0E4FC7AE101228021BE4801F0C9
:100B3C00DEFC00224FF48071BB4801F0D8FC00228F
:100B4C004FF40071B84801F0D2FC01224FF48061DF
:100B5C00B54801F0CCFC01224FF40061B24801F021
:100B6C00C6FC01224FF48051AF4801F0C0FC0122B9
:100B7C004FF40051AC4801F0BAFC50E10022802146
:100B8C00A94801F0B4FC00224FF48071A64801F092
:100B9C00AEFC01224FF40071A34801F0A8FC002226
:100BAC004FF48061A04801F0A2FC00224FF40061D8
:100BBC009D4801F09CFC01224FF480519A4801F0B1
:100BCC0096FC00224FF40051974801F090FC26E16E
:100BDC0000228021944801F08AFC00224FF480719D
:100BEC00914801F084FC00224FF400718E4801F012
:100BFC007EFC00224FF480618B4801F078FC0122CE
:100C0C004FF40061884801F072FC01224FF48051CE
:100C1C00854801F06CFC00224FF40051824801F031
:100C2C0066FCFCE0012280217F4801F060FC002280
:100C3C004FF480717C4801F05AFC00224FF4007193
:100C4C00794801F054FC01224FF48061764801F0A0
:100C5C004EFC01224FF40061734801F048FC002265
:100C6C004FF48051704801F042FC00224FF40051C7
:100C7C006D4801F03CFCD2E0002280216A4801F072
:100C8C0036FC01224FF48071674801F030FC0022E1
:100C9C004FF40071644801F02AFC00224FF480618B
:100CAC00614801F024FC01224FF400615E4801F020
:100CBC001EFC00224FF480515B4801F018FC00220E
:100CCC004FF40051584801F012FCA8E0002280219A
:100CDC00554801F00CFC01224FF48071524801F090
:100CEC0006FC00224FF400714F4801F000FC00227A
:100CFC004FF480614C4801F0FAFB00224FF4006184
:100D0C00494801F0F4FB00224FF48051464801F0B1
:100D1C00EEFB00224FF40051434801F0E8FB7EE06B
:100D2C0000228021404801F0E2FB00224FF4807148
:100D3C003D4801F0DCFB00224FF400713A4801F011
:100D4C00D6FB01224FF48061374801F0D0FB012221
:100D5C004FF40061344801F0CAFB01224FF480517A
:100D6C00314801F0C4FB01224FF400512E4801F030
:100D7C00BEFB54E0002280212B4801F0B8FB00227E
:100D8C004FF48071284801F0B2FB00224FF400713F
:100D9C00254801F0ACFB00224FF48061224801F0A1
:100DAC00A6FB00224FF400611F4801F0A0FB0022BB
:100DBC004FF480511C4801F09AFB00224FF4005173
:100DCC00194801F094FB2AE000228021164801F01A
:100DDC008EFB00224FF48071134801F088FB002237
:100DEC004FF40071104801F082FB00224FF4806137
:100DFC000D4801F07CFB01224FF400610A4801F020
:100E0C0076FB00224FF48051074801F070FB002262
:100E1C004FF40051044801F06AFB00E000BF00BF32
:100E2C000837BD4680BD00BF000C014080B500AF47
:100E3C0000224FF48061054801F059FB01224FF468
:100E4C000061024801F053FB00BF80BD0008014067
:100E5C0080B500AF01224FF48061054801F047FBDB
:100E6C0000224FF40061024801F041FB00BF80BD3D
:100E7C000008014080B500AF00224FF480510548B6
:100E8C0001F035FB01224FF40051024801F02FFB19
:100E9C0000BF80BD0008014080B500AF01224FF4B7
:100EAC008051054801F023FB00224FF40051024809
:100EBC0001F01DFB00BF80BD0008014080B500AFF4
:100ECC0000224FF48041054801F011FB01224FF440
:100EDC000041024801F00BFB00BF80BD000801403F
:100EEC0080B500AF01224FF48041054801F0FFFAB4
:100EFC0000224FF40041024801F0F9FA00BF80BD16
:100F0C000008014080B582B000AF786039607B6822
:100F1C00013B7B603B68013B3B60FFF787FF7B68D5
:100F2C000C4A82FB03129210DB17D31A1846FFF7F8
:100F3C0021FCFFF79FFF3B68064A82FB03129210CD
:100F4C00DB17D31A1846FFF7A5FD00BF0837BD46BF
:100F5C0080BD00BF6766666680B582B000AF786002
:100F6C0039607B68013B7B603B68013B3B60FFF772
:100F7C006FFF7A68114B83FB02139910D317C91AB0
:100F8C000B469B000B445B00D11A0846FFF7F2FBA3
:100F9C00FFF782FF3A68094B83FB02139910D317B2
:100FAC00C91A0B469B000B445B00D11A0846FFF78D
:100FBC0071FD00BF0837BD4680BD00BF6766666621
:100FCC0080B582B000AF78607B68013B7B60FFF737
:100FDC0075FF7B68064A82FB03129210DB17D31A4B
:100FEC001846FFF7C7FB00BF0837BD4680BD00BFE2
:100FFC006766666680B582B000AF78607B68013B3F
:10100C007B60FFF76DFF7A68084B83FB0213991026
:10101C00D317C91A0B469B000B445B00D11A084628
:10102C00FFF738FD00BF0837BD4680BD67666666B2
:10103C0080B400AF0B4B00221A700B4B00221A70BD
:10104C000A4B00221A700A4B00221A70094B1B68BB
:10105C00094A1360094B1B68094A136000BFBD465F
:10106C0080BC7047D0000020D1000020D2000020AE
:10107C00D300002040000020D400002044000020B9
:10108C00D800002080B500AF00F07CFE00F028F8FE
:10109C0000F0D8F800F060F800F0AAF80D4801F064
:1010AC00D3FE00F007FB322264210B4800F0CEFB8C
:1010BC0064226E21094800F0C9FBFFF7B9FF00203C
:1010CC00FFF798FA00F020FC0121002001F040FA13
:1010DC00F8E700BFDC000020050400084D01000803
:1010EC0080B590B000AF07F11803282200211846F4
:1010FC0003F086F83B1D00221A605A609A60DA6091
:10110C001A610223BB610123BB621023FB62002323
:10111C007B6307F11803184601F036FA0346002BDF
:10112C0001D000F01BF90F237B600023BB60002370
:10113C00FB6000233B6100237B613B1D00211846B3
:10114C0001F0A4FC0346002B01D000F007F900BF0E
:10115C004037BD4680BD000080B586B000AF07F1BA
:10116C00080300221A605A609A60DA603B4600223B
:10117C001A605A601D4B4FF080421A601B4B41F6AF
:10118C003F725A60194B00229A60184B0A22DA609F
:10119C00164B00221A61154B00229A61134801F07C
:1011AC0003FE0346002B01D000F0D8F84FF4805317
:1011BC00BB6007F1080319460C4801F099FF034680
:1011CC00002B01D000F0CAF800233B6000237B60A9
:1011DC003B461946054802F065F90346002B01D041
:1011EC0000F0BCF800BF1837BD4680BDDC00002005
:1011FC0080B500AF114B124A1A60104B4FF41652C7
:10120C005A600E4B00229A600C4B0022DA600B4B9A
:10121C0000221A61094B0C225A61084B00229A6178
:10122C00064B0022DA61054802F0A6F90346002BB2
:10123C0001D000F093F800BF80BD00BF2401002056
:10124C000044004080B588B000AF07F110030022C5
:10125C001A605A609A60DA60354B9B69344A43F0E5
:10126C0010039361324B9B6903F01003FB60FB6826
:10127C002F4B9B692E4A43F0040393612C4B9B69C3
:10128C0003F00403BB60BB68294B9B69284A43F0FD
:10129C0008039361264B9B6903F008037B607B6812
:1012AC0001224FF6F071234801F021F9002243F698
:1012BC00FF71214801F01BF94FF440433B610023BF
:1012CC007B610123BB6107F1100319461B4800F039
:1012DC007BFF02233B6100237B610123BB6107F190
:1012EC0010031946134800F06FFF4FF6F0733B6183
:1012FC0001237B610023BB610223FB6107F1100317
:10130C0019460C4800F060FF43F6FF733B61012364
:10131C007B610023BB610223FB6107F110031946BB
:10132C00054800F051FF00BF2037BD4680BD00BF0F
:10133C000010024000080140000C01400010014068
:10134C0080B582B000AF786000F096FB00F0F8F941
:10135C00FFF7A6F800BF0837BD4680BD80B400AFCC
:10136C0072B600BFFEE7000080B500AF0D4B1B78D6
:10137C00002B02D0012B09D011E00B4B1B68184637
:10138C00FFF71EFE074B01221A7008E0064B1B6884
:10139C001846FFF72FFE034B00221A7000BF00BF48
:1013AC0080BD00BFD00000204000002080B500AF01
:1013BC000D4B1B78002B02D0012B09D011E00B4BED
:1013CC001B681846FFF7FCFD074B01221A7008E05A
:1013DC00064B1B681846FFF70DFE034B00221A70D4
:1013EC0000BF00BF80BD00BFD0000020480000201F
:1013FC0080B500AF0D4B1B78002B02D0012B09D010
:10140C0011E00B4B1B681846FFF7DAFD074B012266
:10141C001A7008E0064B1B681846FFF7EBFD034BF0
:10142C0000221A7000BF00BF80BD00BFD00000209A
:10143C004400002080B500AF10212D4801F06FF85A
:10144C0080212B4801F06BF80120FEF7FFFF0346CB
:10145C00012B10D1274B1B680133264A1360264BF6
:10146C001B680133244A1360224B1B68622B02DD7C
:10147C00204B01221A600220FEF7E8FF0346012BE5
:10148C0017D101224FF47C41194801F030F8FFF7D5
:10149C00CFFD002000F09EFA012000F09BFA3222D2
:1014AC000121164800F0D2F964220121144800F001
:1014BC00CDF90020FEF7CAFF0346012B15D10122FE
:1014CC004FF47C710A4801F012F8002000F082FA07
:1014DC00012000F07FFA322201210A4800F0B6F90F
:1014EC0032220121084800F0B1F900BF80BD00BFD5
:1014FC0000080140400000204400002005040008C2
:10150C004D01000819150008B913000880B500AF8B
:10151C0020212D4801F003F84FF480712A4800F087
:10152C00FEFF0120FEF792FF0346012B10D1274B43
:10153C001B680133254A1360254B1B680133244A71
:10154C001360224B1B68622B02DD204B01221A60B8
:10155C000220FEF77BFF0346012B17D101224FF42B
:10156C007C41194800F0C3FFFFF762FD002000F03A
:10157C0031FA012000F02EFA32220121154800F038
:10158C0065F964220121144800F060F90020FEF78F
:10159C005DFF0346012B15D101224FF47C710A48E3
:1015AC0000F0A5FF002000F015FA012000F012FA5F
:1015BC0032220121094800F049F932220121084860
:1015CC0000F044F900BF80BD000801404800002035
:1015DC0040000020050400084D010008F11500082A
:1015EC00FD13000880B500AF40212D4800F097FF97
:1015FC004FF400712A4800F092FF0120FEF726FFFD
:10160C000346012B10D1274B1B680133254A13606D
:10161C00254B1B680133244A1360234B1B68622B38
:10162C0002DD214B01221A600220FEF70FFF034658
:10163C00012B17D101224FF47C41194800F057FFC0
:10164C00FFF7F6FC002000F0C5F9012000F0C2F90C
:10165C0032220121154800F0F9F8642201211448C6
:10166C0000F0F4F80020FEF7F1FE0346012B15D133
:10167C0001224FF47C710A4800F039FF002000F081
:10168C00A9F9012000F0A6F932220121074800F047
:10169C00DDF864220121064800F0D8F800BF80BDB7
:1016AC000008014040000020440000200504000810
:1016BC004D01000880B483B000AF0023FB7134E00F
:1016CC00FA791E4913469B0013449B000B440022DD
:1016DC001A60FA79194913469B0013449B000B447A
:1016EC00043300221A60FA79144913469B00134400
:1016FC009B000B44083300221A60FA790F491346F9
:10170C009B0013449B000B440C3300221A70FA7993
:10171C000A4913469B0013449B000B4410334FF0B3
:10172C00FF321A60FB790133FB71FB79092BC7D9A6
:10173C0000BF00BF0C37BD4680BC70477001002055
:10174C0080B483B000AF0023FB7173E0FA793E499B
:10175C0013469B0013449B000B441B68002B3ED08C
:10176C00FA79394913469B0013449B000B4404330C
:10177C001B68002B33D1FA79334913469B00134471
:10178C009B000B440C331B78FA790133D8B22E49E9
:10179C0013469B0013449B000B440C3302461A70F7
:1017AC00FA79294913469B0013449B000B440833D8
:1017BC001B68002B3BD0FA79234913469B0013443A
:1017CC009B000B4408331B68FA79591E1E481346BC
:1017DC009B0013449B0003440433196027E0FA79FF
:1017EC00194913469B0013449B000B441B68002BA8
:1017FC001DD0FA79144913469B0013449B000B44EB
:10180C0004331B68002B12D0FA790F4913469B0046
:10181C0013449B000B4404331B68FA79591E0A4885
:10182C0013469B0013449B00034404331960FB795B
:10183C000133FB71FB79092B88D900BF00BF0C3732
:10184C00BD4680BC704700BF7001002080B487B0DB
:10185C0000AFF860B9607A600023FB7502E0FB7D95
:10186C000133FB75FA7D274913469B0013449B00FB
:10187C000B441B68002B02D0FB7D092BEFD9FB7DA1
:10188C00092B02D94FF0FF3337E0FA7D1D4913467F
:10189C009B0013449B000B44FA681A60BB68002B36
:1018AC0002D0BB685A1E00E00022F97D15480B4699
:1018BC009B000B449B00034404331A60FA7D1149CE
:1018CC0013469B0013449B000B4408337A681A6040
:1018DC00FA7D0C4913469B0013449B000B440C33BC
:1018EC0000221A70FA7DF97D064813469B001344BA
:1018FC009B00034410331960FB7D18461C37BD4612
:10190C0080BC70477001002080B582B000AF00230E
:10191C00FB7154E0FA792E4913469B0013449B004B
:10192C000B440C331B78002B46D0FA79284913460C
:10193C009B0013449B000B441B689847FA7924497D
:10194C0013469B0013449B000B440C331B78FA7911
:10195C00013BD8B21E4913469B0013449B000B4419
:10196C000C3302461A70FA79194913469B0013443A
:10197C009B000B4408331B68002B19D1FA791449CE
:10198C0013469B0013449B000B440C331B78002B19
:10199C000ED1FA790E4913469B0013449B000B445D
:1019AC0004331B68002B03D1FB79184600F012F8A6
:1019BC00FB79184600F06EF8FB790133FB71FB796B
:1019CC00092BA7D900BF00BF0837BD4680BD00BF9B
:1019DC007001002080B483B000AF78607B68092B65
:1019EC0002D94FF0FF333FE022497A6813469B003F
:1019FC0013449B000B441B68002B02D14FF0FF33A8
:101A0C0032E01C497A6813469B0013449B000B443C
:101A1C0000221A6017497A6813469B0013449B00F6
:101A2C000B44043300221A6012497A6813469B0057
:101A3C0013449B000B44083300221A600D497A684A
:101A4C0013469B0013449B000B440C3300221A706A
:101A5C0008497A6813469B0013449B000B441033CF
:101A6C004FF0FF321A607B6818460C37BD4680BCBD
:101A7C00704700BF7001002080B400AF044B1B689E
:101A8C000A33034A136000BFBD4680BC704700BFD9
:101A9C006C01002080B58AB000AF0346FB71FA7967
:101AAC0007F108031049184602F08AFB03469AB264
:101ABC0007F108014FF47A730C4801F0ADFD0C4BA3
:101ACC001A6807F108030B49184602F079FB034624
:101ADC009AB207F108014FF47A73044801F09CFDA7
:101AEC0000BF2837BD4680BD484B000824010020AC
:101AFC006C010020544B000880B485B000AF154B2E
:101B0C009B69144A43F001039361124B9B6903F0E8
:101B1C000103BB60BB680F4BDB690E4A43F080537B
:101B2C00D3610C4BDB6903F080537B607B680A4B01
:101B3C005B68FB60FB6823F0E063FB60FB6843F0D1
:101B4C008063FB60044AFB68536000BF1437BD46DA
:101B5C0080BC7047001002400000014080B584B08A
:101B6C0000AF78607B681B68B3F1804F13D10C4BCE
:101B7C00DB690B4A43F00103D361094BDB6903F0CA
:101B8C000103FB60FB68002200211C2000F033FAEB
:101B9C001C2000F04CFA00BF1037BD4680BD00BFC2
:101BAC000010024080B588B000AF786007F11003D8
:101BBC0000221A605A609A60DA607B681B681F4AC0
:101BCC00934237D11E4BDB691D4A43F40033D3617A
:101BDC001B4BDB6903F40033FB60FB68184B9B6900
:101BEC00174A43F004039361154B9B6903F00403FC
:101BFC00BB60BB6804233B6102237B610323FB6155
:101C0C0007F1100319460F4800F0DEFA08233B6178
:101C1C0000237B610023BB6107F1100319460948BF
:101C2C0000F0D2FA00220021262000F0E4F9262050
:101C3C0000F0FDF900BF2037BD4680BD00440040D8
:101C4C00001002400008014080B400AFFEE780B4F1
:101C5C0000AFFEE780B400AFFEE780B400AFFEE754
:101C6C0080B400AFFEE780B400AF00BFBD4680BCBF
:101C7C00704780B400AF00BFBD4680BC704780B4D5
:101C8C0000AF00BFBD4680BC704780B500AF00F010
:101C9C00BFF800BF80BD000080B500AF024801F066
:101CAC001FF900BF80BD00BFDC00002080B500AF75
:101CBC00024801F035FD00BF80BD00BF24010020AB
:101CCC0080B586B000AF7860144A154BD31A7B618F
:101CDC007B693B61134B1B68002B02D1114B124AE1
:101CEC001A60104B1A687B6813443A699A4207D2FF
:101CFC0002F08EFA03460C221A604FF0FF3309E013
:101D0C00084B1B68FB60074B1A687B681344054A39
:101D1C001360FB6818461837BD4680BD00280020AC
:101D2C0000040000380200208803002080B400AFBB
:101D3C0000BFBD4680BC7047FFF7F8FF0B480C494D
:101D4C000C4A002302E0D458C4500433C4188C420B
:101D5C00F9D3094A094C002301E013600432A24272
:101D6C00FBD302F05BFAFFF78DF9704700000020FF
:101D7C00A8000020CC4B0008A800002088030020FD
:101D8C00FEE7000080B500AF084B1B68074A43F024
:101D9C0010031360032000F023F90F2000F008F863
:101DAC00FFF7AAFE0023184680BD00BF00200240AA
:101DBC0080B582B000AF7860124B1A68124B1B785A
:101DCC0019464FF47A73B3FBF1F3B2FBF3F31846F5
:101DDC0000F03BF90346002B01D001230EE07B6899
:101DEC000F2B0AD8002279684FF0FF3000F003F96E
:101DFC00064A7B681360002300E00123184608376D
:101E0C00BD4680BD4C000020540000205000002036
:101E1C0080B400AF054B1B781A46054B1B68134466
:101E2C00034A136000BFBD4680BC704754000020BD
:101E3C003C02002080B400AF024B1B681846BD4624
:101E4C0080BC70473C02002080B485B000AF786045
:101E5C007B6803F00703FB600C4BDB68BB60BA6864
:101E6C004FF6FF031340BB60FB681A02BB681343B9
:101E7C0043F0BF6343F40033BB60044ABB68D360D8
:101E8C0000BF1437BD4680BC704700BF00ED00E0BA
:101E9C0080B400AF044BDB681B0A03F00703184641
:101EAC00BD4680BC704700BF00ED00E080B483B03D
:101EBC0000AF0346FB7197F90730002B0BDBFB7966
:101ECC0003F01F02064997F907305B09012000FA5D
:101EDC0002F241F8232000BF0C37BD4680BC70478E
:101EEC0000E100E080B483B000AF03463960FB71C1
:101EFC0097F90730002B0ADB3B68DAB20C4997F9EB
:101F0C0007301201D2B20B4483F800230AE03B687D
:101F1C00DAB20849FB7903F00F03043B1201D2B289
:101F2C000B441A7600BF0C37BD4680BC704700BF0F
:101F3C0000E100E000ED00E080B489B000AFF86093
:101F4C00B9607A60FB6803F00703FB61FB69C3F1BE
:101F5C000703042B28BF0423BB61FB690433062B46
:101F6C0002D9FB69033B00E000237B614FF0FF3299
:101F7C00BB6902FA03F3DA43BB681A407B699A40E7
:101F8C004FF0FF317B6901FA03F3D9437B680B40B7
:101F9C00134318462437BD4680BC704780B582B0C9
:101FAC0000AF78607B68013BB3F1807F01D30123E4
:101FBC000FE00A4A7B68013B53600F214FF0FF3062
:101FCC00FFF790FF054B00229A60044B07221A6022
:101FDC00002318460837BD4680BD00BF10E000E066
:101FEC0080B582B000AF78607868FFF72DFF00BF36
:101FFC000837BD4680BD80B586B000AF0346B960DA
:10200C007A60FB7300237B61FFF742FF78617A688B
:10201C00B9687869FFF790FF024697F90F301146BF
:10202C001846FFF75FFF00BF1837BD4680BD80B56F
:10203C0082B000AF0346FB7197F907301846FFF7E3
:10204C0035FF00BF0837BD4680BD80B582B000AFFC
:10205C0078607868FFF7A2FF034618460837BD463C
:10206C0080BD80B485B000AF78600023FB737B68C3
:10207C0093F82130DBB2022B08D07B6804229A63E0
:10208C007B68002283F82020012320E07B681B68FA
:10209C001A687B681B6822F00E021A607B681B684A
:1020AC001A687B681B6822F001021A607B681A6C44
:1020BC007B68DB6B012101FA02F25A607B6801221A
:1020CC0083F821207B68002283F82020FB7B1846B4
:1020DC001437BD4680BC704780B584B000AF7860C3
:1020EC000023FB737B6893F82130DBB2022B05D005
:1020FC007B6804229A630123FB7351E07B681B68A5
:10210C001A687B681B6822F00E021A607B681B68D9
:10211C001A687B681B6822F001021A607B681B68D6
:10212C00224A934229D07B681B68214A934222D0D1
:10213C007B681B681F4A93421AD07B681B681E4A37
:10214C00934212D07B681B681C4A93420AD07B686E
:10215C001B681B4A934202D14FF480130EE04FF0E0
:10216C0080730BE04FF4803308E04FF4805305E0AC
:10217C004FF4807302E0102300E00123114A5360F6
:10218C007B68012283F821207B68002283F82020C1
:10219C007B685B6B002B03D07B685B6B7868984724
:1021AC00FB7B18461037BD4680BD00BF08000240BF
:1021BC001C00024030000240440002405800024023
:1021CC006C0002400000024080B48BB000AF78601D
:1021DC00396000237B6200233B6261E101227B6A50
:1021EC0002FA03F3FB613B681B68FA691340BB619D
:1021FC00BA69FB699A4240F050813B685B68974A28
:10220C0093425ED0954A934275D8954A934258D0E2
:10221C00934A93426FD8934A934252D0914A934235
:10222C0069D8914A93424CD08F4A934263D88F4AD3
:10223C00934246D08D4A93425DD8122B2AD8122B4A
:10224C0059D801A252F823F0CF220008A922000885
:10225C00BB220008FD22000803230008032300080A
:10226C0003230008032300080323000803230008AA
:10227C00032300080323000803230008032300089A
:10228C00032300080323000803230008B1220008DD
:10229C00C5220008764A934213D02CE03B68DB68D9
:1022AC003B6229E03B68DB6804333B6224E03B681B
:1022BC00DB6808333B621FE03B68DB680C333B6236
:1022CC001AE03B689B68002B02D104233B6213E0AD
:1022DC003B689B68012B05D108233B627B68FA693C
:1022EC001A6109E008233B627B68FA695A6103E0D2
:1022FC0000233B6200E000BFBB69FF2B01D87B6869
:10230C0001E07B6804337B61BB69FF2B02D87B6ADD
:10231C009B0002E07B6A083B9B003B617B691A686F
:10232C000F213B6901FA03F3DB431A40396A3B691D
:10233C0001FA03F31A437B691A603B685B6803F08C
:10234C008053002B00F0A9804A4B9B69494A43F00B
:10235C0001039361474B9B6903F00103BB60BB68AE
:10236C00454A7B6A9B08023352F82330FB607B6A38
:10237C0003F003039B000F2202FA03F3DB43FA681A
:10238C001340FB607B683D4A93420DD07B683C4A0E
:10239C00934207D07B683B4A934201D1022304E06D
:1023AC00032302E0012300E000237A6A02F0030217
:1023BC0092009340FA681343FB602F497B6A9B0899
:1023CC000233FA6841F823203B685B6803F48013FE
:1023DC00002B06D02C4B9A682B49BB6913438B609E
:1023EC0006E0294B9A68BB69DB43274913408B6095
:1023FC003B685B6803F40013002B06D0224BDA68B1
:10240C002149BB691343CB6006E01F4BDA68BB69FB
:10241C00DB431D491340CB603B685B6803F400331E
:10242C00002B06D0184B5A681749BB6913434B60F5
:10243C0006E0154B5A68BB69DB43134913404B60EC
:10244C003B685B6803F48033002B1FD00E4B1A687B
:10245C000D49BB6913430B601FE000BF0000321035
:10246C00000031100000221000002110000012109A
:10247C000000111000100240000001400008014053
:10248C00000C014000100140000401400B4B1A6885
:10249C00BB69DB43094913400B607B6A01337B62E8
:1024AC003B681A687B6A22FA03F3002B7FF496AE22
:1024BC0000BF00BF2C37BD4680BC704700040140F4
:1024CC0080B485B000AF78600B467B807B689A68DF
:1024DC007B881340002B02D00123FB7301E0002307
:1024EC00FB73FB7B18461437BD4680BC704780B429
:1024FC0083B000AF78600B467B8013467B707B7893
:10250C00002B03D07A887B681A6103E07B881A045D
:10251C007B681A6100BF0C37BD4680BC704780B425
:10252C0085B000AF78600B467B807B68DB68FB6016
:10253C007A88FB6813401A04FB68D9437B880B40EC
:10254C001A437B681A6100BF1437BD4680BC7047C4
:10255C0080B483B000AF78600B46FB70094B1B69ED
:10256C00084A23F004031361FB78012B01D130BF1F
:10257C0002E040BF20BF20BF00BF0C37BD4680BC6F
:10258C00704700BF00ED00E080B586B000AF78600A
:10259C007B68002B01D1012372E27B681B6803F07E
:1025AC000103002B00F08780924B5B6803F00C0357
:1025BC00042B0CD08F4B5B6803F00C03082B12D14F
:1025CC008C4B5B6803F48033B3F5803F0BD1894BA4
:1025DC001B6803F40033002B6CD07B685B68002B0A
:1025EC0068D101234CE27B685B68B3F5803F06D170
:1025FC00804B1B687F4A43F4803313602EE07B686A
:10260C005B68002B0CD17B4B1B687A4A23F480331C
:10261C001360784B1B68774A23F4802313601DE00A
:10262C007B685B68B3F5A02F0CD1724B1B68714AA9
:10263C0043F4802313606F4B1B686E4A43F4803362
:10264C0013600BE06B4B1B686A4A23F480331360F6
:10265C00684B1B68674A23F4802313607B685B68B4
:10266C00002B13D0FFF7E6FB386108E0FFF7E2FB25
:10267C0002463B69D31A642B01D9032300E25D4B5C
:10268C001B6803F40033002BF0D014E0FFF7D2FBEF
:10269C00386108E0FFF7CEFB02463B69D31A642B86
:1026AC0001D90323ECE1534B1B6803F40033002BDB
:1026BC00F0D100E000BF7B681B6803F00203002B25
:1026CC0063D04C4B5B6803F00C03002B0BD0494BD5
:1026DC005B6803F00C03082B1CD1464B5B6803F4BE
:1026EC008033002B16D1434B1B6803F00203002BE5
:1026FC0005D07B681B69012B01D00123C0E13D4B48
:10270C001B6823F0F8027B685B69DB0039491343D3
:10271C000B603AE07B681B69002B20D0364B012202
:10272C001A60FFF787FB386108E0FFF783FB02466E
:10273C003B69D31A022B01D90323A1E12D4B1B6852
:10274C0003F00203002BF0D02A4B1B6823F0F80295
:10275C007B685B69DB00274913430B6015E0264B54
:10276C0000221A60FFF766FB386108E0FFF762FB96
:10277C0002463B69D31A022B01D9032380E11D4B7E
:10278C001B6803F00203002BF0D17B681B6803F07D
:10279C000803002B3AD07B689B69002B19D0174B90
:1027AC0001221A60FFF746FB386108E0FFF742FB95
:1027BC0002463B69D31A022B01D9032360E10D4B6E
:1027CC005B6A03F00203002BF0D0012000F0CEFA7C
:1027DC001CE00A4B00221A60FFF72CFB38610FE05B
:1027EC00FFF728FB02463B69D31A022B08D90323B7
:1027FC0046E100BF00100240000042428004424209
:10280C00924B5B6A03F00203002BE9D17B681B68D7
:10281C0003F00403002B00F0A6800023FB758B4B08
:10282C00DB6903F08053002B0DD1884BDB69874AA1
:10283C0043F08053D361854BDB6903F08053BB605D
:10284C00BB680123FB75824B1B6803F48073002B60
:10285C0018D17F4B1B687E4A43F480731360FFF7DB
:10286C00E9FA386108E0FFF7E5FA02463B69D31A4A
:10287C00642B01D9032303E1754B1B6803F48073AC
:10288C00002BF0D07B68DB68012B06D16F4B1B6AE9
:10289C006E4A43F0010313622DE07B68DB68002B6A
:1028AC000CD16A4B1B6A694A23F001031362674B14
:1028BC001B6A664A23F0040313621CE07B68DB6826
:1028CC00052B0CD1614B1B6A604A43F00403136265
:1028DC005E4B1B6A5D4A43F0010313620BE05B4BDA
:1028EC001B6A5A4A23F001031362584B1B6A574A5E
:1028FC0023F0040313627B68DB68002B15D0FFF711
:10290C0099FA38610AE0FFF795FA02463B69D31A47
:10291C0041F28832934201D90323B1E04B4B1B6A3D
:10292C0003F00203002BEED014E0FFF783FA3861BA
:10293C000AE0FFF77FFA02463B69D31A41F288326C
:10294C00934201D903239BE0404B1B6A03F0020323
:10295C00002BEED1FB7D012B05D13C4BDB693B4AB7
:10296C0023F08053D3617B68DB69002B00F08780F8
:10297C00364B5B6803F00C03082B61D07B68DB697A
:10298C00022B46D1334B00221A60FFF753FA386101
:10299C0008E0FFF74FFA02463B69D31A022B01D924
:1029AC0003236DE0294B1B6803F00073002BF0D15F
:1029BC007B681B6AB3F5803F08D1244B5B6823F41A
:1029CC0000327B689B68214913434B601F4B5B684B
:1029DC0023F474127B68196A7B685B6A0B431B498E
:1029EC0013434B601B4B01221A60FFF723FA38612B
:1029FC0008E0FFF71FFA02463B69D31A022B01D9F4
:102A0C0003233DE0114B1B6803F00073002BF0D047
:102A1C0035E0104B00221A60FFF70CFA386108E021
:102A2C00FFF708FA02463B69D31A022B01D903239C
:102A3C0026E0064B1B6803F00073002BF0D11EE060
:102A4C007B68DB69012B07D1012319E000100240E0
:102A5C0000700040600042420B4B5B68FB60FB68FF
:102A6C0003F480327B681B6A9A4206D1FB6803F43C
:102A7C0070127B685B6A9A4201D0012300E000234C
:102A8C0018461837BD4680BD0010024080B584B092
:102A9C0000AF786039607B68002B01D10123D0E056
:102AAC006A4B1B6803F007033A689A4210D9674BCC
:102ABC001B6823F0070265493B6813430B60634BAB
:102ACC001B6803F007033A689A4201D00123B8E06F
:102ADC007B681B6803F00203002B20D07B681B680B
:102AEC0003F00403002B05D0594B5B68584A43F4A0
:102AFC00E06353607B681B6803F00803002B05D070
:102B0C00534B5B68524A43F460535360504B5B68C1
:102B1C0023F0F0027B689B684D4913434B607B6844
:102B2C001B6803F00103002B40D07B685B68012B12
:102B3C0007D1474B1B6803F40033002B15D101233D
:102B4C007FE07B685B68022B07D1414B1B6803F06D
:102B5C000073002B09D1012373E03D4B1B6803F07C
:102B6C000203002B01D101236BE0394B5B6823F08E
:102B7C0003027B685B68364913434B60FFF75AF9D5
:102B8C00F8600AE0FFF756F90246FB68D31A41F2E7
:102B9C008832934201D9032353E02D4B5B6803F039
:102BAC000C027B685B689B009A42EBD1274B1B683D
:102BBC0003F007033A689A4210D2244B1B6823F0A7
:102BCC00070222493B6813430B60204B1B6803F040
:102BDC0007033A689A4201D0012332E07B681B68F4
:102BEC0003F00403002B08D0194B5B6823F4E0625C
:102BFC007B68DB68164913434B607B681B6803F0EA
:102C0C000803002B09D0124B5B6823F460527B68DD
:102C1C001B69DB000E4913434B6000F021F80246A0
:102C2C000B4B5B681B0903F00F030A49CB5C22FAC0
:102C3C0003F3094A1360094B1B681846FFF7B8F8F1
:102C4C00002318461037BD4680BD00BF002002404F
:102C5C0000100240644B00084C0000205000002083
:102C6C0080B487B000AF0023FB600023BB6000235F
:102C7C007B6100237B6000233B611E4B5B68FB6028
:102C8C00FB6803F00C03042B02D0082B03D027E0C5
:102C9C00194B3B6127E0FB689B0C03F00F03174AB1
:102CAC00D35C7B60FB6803F48033002B10D0114B9A
:102CBC005B685B0C03F00103114AD35CBB607B685F
:102CCC000D4A03FB02F2BB68B2FBF3F37B6104E039
:102CDC007B680C4A02FB03F37B617B693B6102E07E
:102CEC00054B3B6100BF3B6918461C37BD4680BC99
:102CFC00704700BF0010024000127A007C4B0008A5
:102D0C008C4B000800093D0080B400AF024B1B68DF
:102D1C001846BD4680BC70474C00002080B500AF03
:102D2C00FFF7F2FF0246054B5B681B0A03F0070333
:102D3C000349CB5C22FA03F3184680BD0010024015
:102D4C00744B000880B500AFFFF7DEFF0246054B61
:102D5C005B68DB0A03F007030349CB5C22FA03F33D
:102D6C00184680BD00100240744B000880B485B03A
:102D7C0000AF78600A4B1B680A4AA2FB03235B0A6C
:102D8C007A6802FB03F3FB6000BFFB685A1EFA6013
:102D9C00002BF9D100BF00BF1437BD4680BC704773
:102DAC004C000020D34D621080B582B000AF78602B
:102DBC007B68002B01D1012341E07B6893F83D3007
:102DCC00DBB2002B06D17B68002283F83C207868AC
:102DDC00FEF7C4FE7B68022283F83D207B681A68EC
:102DEC007B6804331946104600F06EFA7B680122AA
:102DFC0083F846207B68012283F83E207B68012201
:102E0C0083F83F207B68012283F840207B680122F5
:102E1C0083F841207B68012283F842207B680122E1
:102E2C0083F843207B68012283F844207B680122CD
:102E3C0083F845207B68012283F83D200023184647
:102E4C000837BD4680BD000080B485B000AF786007
:102E5C007B6893F83D30DBB2012B01D0012335E0C8
:102E6C007B68022283F83D207B681B68DA687B68EC
:102E7C001B6842F00102DA607B681B68164A9342B9
:102E8C0009D07B681B68B3F1804F04D07B681B684A
:102E9C00124A934211D17B681B689B6803F00703AD
:102EAC00FB60FB68062B10D07B681B681A687B687C
:102EBC001B6842F001021A6007E07B681B681A6805
:102ECC007B681B6842F001021A6000231846143715
:102EDC00BD4680BC704700BF002C01400004004080
:102EEC0080B582B000AF78607B681B681B6903F00B
:102EFC000203022B22D17B681B68DB6803F0020300
:102F0C00022B1BD17B681B686FF002021A617B6875
:102F1C0001221A777B681B689B6903F00303002B63
:102F2C0003D0786800F0B4F905E0786800F0A7F9F0
:102F3C00786800F0B6F97B6800221A777B681B680A
:102F4C001B6903F00403042B22D17B681B68DB682C
:102F5C0003F00403042B1BD17B681B686FF0040285
:102F6C001A617B6802221A777B681B689B6903F4E1
:102F7C004073002B03D0786800F08AF905E078687C
:102F8C0000F07DF9786800F08CF97B6800221A77E4
:102F9C007B681B681B6903F00803082B22D17B6834
:102FAC001B68DB6803F00803082B1BD17B681B68CC
:102FBC006FF008021A617B6804221A777B681B6821
:102FCC00DB6903F00303002B03D0786800F060F991
:102FDC0005E0786800F053F9786800F062F97B68D6
:102FEC0000221A777B681B681B6903F01003102BF7
:102FFC0022D17B681B68DB6803F01003102B1BD1FC
:10300C007B681B686FF010021A617B6808221A77C4
:10301C007B681B68DB6903F44073002B03D0786872
:10302C0000F036F905E0786800F029F9786800F0CE
:10303C0038F97B6800221A777B681B681B6903F0E0
:10304C000103012B0ED17B681B68DB6803F00103C5
:10305C00012B07D17B681B686FF001021A6178683D
:10306C00FEF76EF97B681B681B6903F08003802BED
:10307C000ED17B681B68DB6803F08003802B07D1C3
:10308C007B681B686FF080021A61786800F06BFA3D
:10309C007B681B681B6903F04003402B0ED17B68D7
:1030AC001B68DB6803F04003402B07D17B681B686F
:1030BC006FF040021A61786800F0FCF87B681B68BE
:1030CC001B6903F02003202B0ED17B681B68DB6887
:1030DC0003F02003202B07D17B681B686FF02002C4
:1030EC001A61786800F036FA00BF0837BD4680BD1B
:1030FC0080B584B000AF786039600023FB737B68C7
:10310C0093F83C30012B01D10223B4E07B680122FF
:10311C0083F83C207B68022283F83D207B681B6887
:10312C009B68BB60BB6823F07703BB60BB6823F470
:10313C007F43BB607B681B68BA689A603B681B68FE
:10314C00B3F5005F3ED0B3F5005F00F28780B3F5B6
:10315C00805F00F08680B3F5805F7FD8702B1AD02B
:10316C00702B7BD8602B50D0602B77D8502B3CD059
:10317C00502B73D8402B58D0402B6FD8302B64D0A9
:10318C00302B6BD8202B60D0202B67D8002B5CD039
:10319C00102B5AD062E07B6818683B6899683B68D2
:1031AC005A683B68DB6800F05EF97B681B689B68BB
:1031BC00BB60BB6843F07703BB607B681B68BA6875
:1031CC009A604FE07B6818683B6899683B685A685E
:1031DC003B68DB6800F047F97B681B689A687B6882
:1031EC001B6842F480429A603CE07B6818683B683C
:1031FC0059683B68DB681A4600F0BEF87B681B68B0
:10320C005021184600F015F92CE07B6818683B68D3
:10321C0059683B68DB681A4600F0DCF87B681B6871
:10322C006021184600F005F91CE07B6818683B68C3
:10323C0059683B68DB681A4600F09EF87B681B688F
:10324C004021184600F0F5F80CE07B681A683B68E2
:10325C001B681946104600F0ECF803E00123FB73E1
:10326C0000E000BF7B68012283F83D207B680022D0
:10327C0083F83C20FB7B18461037BD4680BD80B4DC
:10328C0083B000AF786000BF0C37BD4680BC704780
:10329C0080B483B000AF786000BF0C37BD4680BCF3
:1032AC00704780B483B000AF786000BF0C37BD4668
:1032BC0080BC704780B483B000AF786000BF0C371F
:1032CC00BD4680BC7047000080B485B000AF78600C
:1032DC0039607B681B68FB607B68254A934207D08A
:1032EC007B68B3F1804F03D07B68224A934208D1AC
:1032FC00FB6823F07003FB603B685B68FA68134360
:10330C00FB607B681A4A934207D07B68B3F1804F0D
:10331C0003D07B68174A934208D1FB6823F44073AF
:10332C00FB603B68DB68FA681343FB60FB6823F0C7
:10333C0080023B685B691343FB607B68FA681A6028
:10334C003B689A687B68DA623B681A687B689A62A9
:10335C007B68074A934203D13B681A697B681A63FE
:10336C007B6801225A6100BF1437BD4680BC704790
:10337C00002C01400004004080B487B000AFF8601E
:10338C00B9607A60FB681B6A7B61FB681B6A23F07F
:10339C000102FB681A62FB689B693B613B6923F085
:1033AC00F0033B617B681B013A6913433B617B690A
:1033BC0023F00A037B617A69BB6813437B61FB686A
:1033CC003A699A61FB687A691A6200BF1C37BD467C
:1033DC0080BC704780B487B000AFF860B9607A6089
:1033EC00FB681B6A7B61FB681B6A23F01002FB689D
:1033FC001A62FB689B693B613B6923F470433B6138
:10340C007B681B033A6913433B617B6923F0A00380
:10341C007B61BB681B017A6913437B61FB683A696A
:10342C009A61FB687A691A6200BF1C37BD4680BC82
:10343C00704780B485B000AF786039607B689B685A
:10344C00FB60FB6823F07003FB603A68FB68134376
:10345C0043F00703FB607B68FA689A6000BF14377F
:10346C00BD4680BC704780B487B000AFF860B960CF
:10347C007A603B60FB689B687B617B6923F47F43CC
:10348C007B613B681A027B681A43BB6813437A69F9
:10349C0013437B61FB687A699A6000BF1C37BD4699
:1034AC0080BC704780B485B000AF786039607B68B1
:1034BC0093F83C30012B01D1022341E07B680122BF
:1034CC0083F83C207B68022283F83D207B681B68D4
:1034DC005B68FB607B681B689B68BB60FB6823F0C8
:1034EC007003FB603B681B68FA681343FB607B68E6
:1034FC001B68FA685A607B681B68144A934209D0AF
:10350C007B681B68B3F1804F04D07B681B68104A42
:10351C0093420CD1BB6823F08003BB603B685B68B3
:10352C00BA681343BB607B681B68BA689A607B6897
:10353C00012283F83D207B68002283F83C20002385
:10354C0018461437BD4680BC704700BF002C0140A4
:10355C000004004080B483B000AF786000BF0C372B
:10356C00BD4680BC704780B483B000AF786000BFAC
:10357C000C37BD4680BC704780B582B000AF786018
:10358C007B68002B01D1012342E07B6893F841302A
:10359C00DBB2002B06D17B68002283F840207868D0
:1035AC00FEF700FB7B68242283F841207B681B68B4
:1035BC00DA687B681B6822F40052DA60786800F0E5
:1035CC0071FD7B681B681A697B681B6822F490424A
:1035DC001A617B681B685A697B681B6822F02A0297
:1035EC005A617B681B68DA687B681B6842F400527E
:1035FC00DA607B6800225A647B68202283F84120C1
:10360C007B68202283F842207B6800225A630023C7
:10361C0018460837BD4680BD80B58AB002AFF86049
:10362C00B9603B601346FB8000237B61FB6893F819
:10363C004130DBB2202B6DD1BB68002B02D0FB8854
:10364C00002B01D1012366E0FB6800225A64FB6861
:10365C00212283F84120FEF7EDFB7861FB68FA88A4
:10366C009A84FB68FA88DA84FB689B68B3F5805F00
:10367C0008D1FB681B69002B04D10023FB61BB68DC
:10368C00BB6103E0BB68FB610023BB612AE03B68C4
:10369C0000937B6900228021F86800F0F9FA034658
:1036AC00002B01D0032336E0FB69002B0BD1BB6947
:1036BC001B881A46FB681B68C2F308025A60BB6978
:1036CC000233BB6107E0FB691A78FB681B685A6020
:1036DC00FB690133FB61FB68DB8C9BB2013B9AB24B
:1036EC00FB68DA84FB68DB8C9BB2002BCFD13B6888
:1036FC0000937B6900224021F86800F0C9FA034668
:10370C00002B01D0032306E0FB68202283F8412024
:10371C00002300E0022318462037BD4680BD000080
:10372C0080B5BAB000AF78607B681B681B68C7F8BF
:10373C00E4307B681B68DB68C7F8E0307B681B688B
:10374C005B69C7F8DC300023C7F8D8300023C7F812
:10375C00D430D7F8E43003F00F03C7F8D830D7F8DB
:10376C00D830002B0FD1D7F8E43003F02003002B16
:10377C0009D0D7F8E03003F02003002B03D0786891
:10378C0000F0D1FB5BE2D7F8D830002B00F0DE80E4
:10379C00D7F8DC3003F00103002B06D1D7F8E0306A
:1037AC0003F49073002B00F0D180D7F8E43003F0D1
:1037BC000103002B0BD0D7F8E03003F48073002BFF
:1037CC0005D07B685B6C43F001027B685A64D7F8C8
:1037DC00E43003F00403002B0BD0D7F8DC3003F0FB
:1037EC000103002B05D07B685B6C43F002027B6805
:1037FC005A64D7F8E43003F00203002B0BD0D7F84F
:10380C00DC3003F00103002B05D07B685B6C43F0CC
:10381C0004027B685A64D7F8E43003F00803002BE9
:10382C0011D0D7F8E03003F02003002B05D1D7F8E6
:10383C00DC3003F00103002B05D07B685B6C43F09C
:10384C0008027B685A647B685B6C002B00F0F28189
:10385C00D7F8E43003F02003002B08D0D7F8E03081
:10386C0003F02003002B02D0786800F05CFB7B682F
:10387C001B685B6903F04003002B14BF012300237A
:10388C00DBB2C7F8D4307B685B6C03F00803002B09
:10389C0003D1D7F8D430002B4FD0786800F066FAFB
:1038AC007B681B685B6903F04003002B41D07B688D
:1038BC001B681433C7F89C30D7F89C3053E8003F92
:1038CC00C7F89830D7F8983023F04003C7F8D030B9
:1038DC007B681B681433D7F8D020C7F8A820C7F82A
:1038EC00A430D7F8A410D7F8A82041E80023C7F8D3
:1038FC00A030D7F8A030002BD9D17B68DB6B002B24
:10390C0013D07B68DB6B7E4A5A637B68DB6B184693
:10391C00FEF7E2FB0346002B16D07B68DB6B5B6B80
:10392C007A68D26B104698470EE0786800F09CF9E4
:10393C000AE0786800F098F906E0786800F094F9ED
:10394C007B6800225A6475E100BF73E17B681B6BD6
:10395C00012B40F04F81D7F8E43003F01003002B1B
:10396C0000F04881D7F8E03003F01003002B00F092
:10397C0041810023BB607B681B681B68BB607B6854
:10398C001B685B68BB60BB687B681B685B6903F08A
:10399C004003002B00F0B6807B68DB6B1B685B6818
:1039AC00A7F8BE30B7F8BE30002B00F045817B681D
:1039BC009B8DB7F8BE209A4280F03E817B68B7F8A9
:1039CC00BE20DA857B68DB6B9B69202B00F088803E
:1039DC007B681B680C33C7F88830D7F8883053E8FD
:1039EC00003FC7F88430D7F8843023F48073C7F8CD
:1039FC00B8307B681B680C33D7F8B820C7F8942014
:103A0C00C7F89030D7F89010D7F8942041E80023ED
:103A1C00C7F88C30D7F88C30002BD9D17B681B6859
:103A2C0014337B677B6F53E8003F3B673B6F23F09E
:103A3C000103C7F8B4307B681B681433D7F8B42083
:103A4C00C7F88020FB67F96FD7F8802041E8002386
:103A5C00BB67BB6F002BE1D17B681B6814333B66E3
:103A6C003B6E53E8003FFB65FB6D23F04003C7F84A
:103A7C00B0307B681B681433D7F8B020FA66BB668D
:103A8C00B96EFA6E41E800237B667B6E002BE3D1A6
:103A9C007B68202283F842207B6800221A637B68B3
:103AAC001B680C33FB64FB6C53E8003FBB64BB6CC2
:103ABC0023F01003C7F8AC307B681B680C33D7F8C5
:103ACC00AC20BA657B65796DBA6D41E800233B6526
:103ADC003B6D002BE3D17B68DB6B1846FEF7C1FA1C
:103AEC007B6802225A637B689A8D7B68DB8D9BB264
:103AFC00D31A9BB21946786800F0BFF89CE000BF5F
:103B0C003D3E00087B689A8D7B68DB8D9BB2D31A97
:103B1C00A7F8CE307B68DB8D9BB2002B00F08E803B
:103B2C00B7F8CE30002B00F089807B681B680C3313
:103B3C00BB63BB6B53E8003F7B637B6B23F49073DD
:103B4C00C7F8C8307B681B680C33D7F8C8207A6478
:103B5C003B64396C7A6C41E80023FB63FB6B002BF4
:103B6C00E3D17B681B6814337B627B6A53E8003FAC
:103B7C003B623B6A23F00103C7F8C4307B681B68C7
:103B8C001433D7F8C4203A63FB62F96A3A6B41E804
:103B9C000023BB62BB6A002BE3D17B68202283F835
:103BAC0042207B6800221A637B681B680C333B61E4
:103BBC003B6953E8003FFB60FB6823F01003C7F838
:103BCC00C0307B681B680C33D7F8C020FA61BB612E
:103BDC00B969FA6941E800237B617B69002BE3D169
:103BEC007B6802225A63B7F8CE301946786800F029
:103BFC0044F823E0D7F8E43003F08003002B09D01D
:103C0C00D7F8E03003F08003002B03D0786800F085
:103C1C0023F914E0D7F8E43003F04003002B0ED066
:103C2C00D7F8E03003F04003002B08D0786800F0A0
:103C3C0062F904E000BF02E000BF00E000BFE8371B
:103C4C00BD4680BD80B483B000AF786000BF0C3738
:103C5C00BD4680BC704780B483B000AF786000BFB5
:103C6C000C37BD4680BC704780B483B000AF786021
:103C7C0000BF0C37BD4680BC704780B483B000AF2A
:103C8C0078600B467B8000BF0C37BD4680BC70470C
:103C9C0080B590B000AFF860B9603B601346FB7123
:103CAC0050E0BB6CB3F1FF3F4CD0BB6C002B07D08A
:103CBC00FEF7C0F802463B68D31ABA6C9A4241D25E
:103CCC00FB681B680C33BB62BB6A53E8003F7B622A
:103CDC007B6A23F4D073FB63FB681B680C33FA6BB1
:103CEC007A633B63396B7A6B41E80023FB62FB6AB6
:103CFC00002BE5D1FB681B6814337B617B6953E8AF
:103D0C00003F3B613B6923F00103BB63FB681B680D
:103D1C001433BA6B3A62FB61F9693A6A41E80023E1
:103D2C00BB61BB69002BE5D1FB68202283F84120E5
:103D3C00FB68202283F84220FB68002283F8402095
:103D4C0003230FE0FB681B681A68BB681340BA6852
:103D5C009A420CBF01230023DBB21A46FB799A422C
:103D6C009FD0002318464037BD4680BD80B495B027
:103D7C0000AF78607B681B680C337B637B6B53E80C
:103D8C00003F3B633B6B23F49073FB647B681B68C5
:103D9C000C33FA6C3A64FB63F96B3A6C41E8002320
:103DAC00BB63BB6B002BE5D17B681B6814333B6298
:103DBC003B6A53E8003FFB61FB6923F00103BB64E2
:103DCC007B681B681433BA6CFA62BB62B96AFA6A14
:103DDC0041E800237B627B6A002BE5D17B681B6B7F
:103DEC00012B19D17B681B680C33FB60FB6853E813
:103DFC00003FBB60BB6823F010037B647B681B68CF
:103E0C000C337A6CBA617B617969BA6941E8002339
:103E1C003B613B69002BE5D17B68202283F8422073
:103E2C007B6800221A6300BF5437BD4680BC7047C4
:103E3C0080B584B000AF78607B685B6AFB60FB6820
:103E4C000022DA85FB680022DA84F868FFF70CFFA1
:103E5C0000BF1037BD4680BD80B485B000AF786020
:103E6C007B6893F84130DBB2212B3ED17B689B6899
:103E7C00B3F5805F14D17B681B69002B10D17B6874
:103E8C001B6AFB60FB681B881A467B681B68C2F3C5
:103E9C0008025A607B681B6A9A1C7B681A6208E0ED
:103EAC007B681B6A591C7A6811621A787B681B68DC
:103EBC005A607B68DB8C9BB2013B9BB27A681946DB
:103ECC00D184002B0FD17B681B68DA687B681B6878
:103EDC0022F08002DA607B681B68DA687B681B68FA
:103EEC0042F04002DA60002300E002231846143747
:103EFC00BD4680BC704780B582B000AF78607B68EF
:103F0C001B68DA687B681B6822F04002DA607B6809
:103F1C00202283F841207868FFF794FE002318468E
:103F2C000837BD4680BD80B58CB000AF78607B682B
:103F3C0093F84230DBB2222B40F0AE807B689B685A
:103F4C00B3F5805F17D17B681B69002B13D100235D
:103F5C00FB627B689B6ABB627B681B685B689BB27D
:103F6C00C3F308039AB2BB6A1A807B689B6A9A1CDB
:103F7C007B689A6226E07B689B6AFB620023BB62CB
:103F8C007B689B68B3F5805F07D07B689B68002BD0
:103F9C000AD17B681B69002B06D17B681B685B68A8
:103FAC00DAB2FB6A1A7008E07B681B685B68DBB2EC
:103FBC0003F07F03DAB2FB6A1A707B689B6A5A1CA7
:103FCC007B689A627B68DB8D9BB2013B9BB27A6803
:103FDC001946D185002B5DD17B681B68DA687B683C
:103FEC001B6822F02002DA607B681B68DA687B6849
:103FFC001B6822F48072DA607B681B685A697B68E4
:10400C001B6822F001025A617B68202283F842204F
:10401C007B6800225A637B681B6B012B35D17B6854
:10402C0000221A637B681B680C337B617B6953E845
:10403C00003F3B613B6923F010037B627B681B688C
:10404C000C337A6A3A62FB61F9693A6A41E80023F7
:10405C00BB61BB69002BE5D17B681B681B6803F057
:10406C001003102B0AD10023FB607B681B681B68B4
:10407C00FB607B681B685B68FB60FB687B689B8DE7
:10408C0019467868FFF7F9FD02E07868FFF7E3FD61
:10409C00002302E0002300E0022318463037BD461F
:1040AC0080BD000080B584B000AF78607B681B6871
:1040BC001B6923F440517B68DA687B681B680A43F0
:1040CC001A617B689A687B681B691A437B685B6919
:1040DC001343BB607B681B68DB6823F4B05323F08D
:1040EC000C037A681268B9680B43D3607B681B6851
:1040FC005B6923F440717B689A697B681B680A438F
:10410C005A617B681B682C4A934203D1FEF71AFE56
:10411C00F86002E0FEF702FEF860FA6813469B00B6
:10412C0013449A001A447B685B689B00B2FBF3F360
:10413C00224AA2FB03235B091901FA6813469B0070
:10414C0013449A001A447B685B689B00B2FBF3F241
:10415C001A4BA3FB02035B09642000FB03F3D31A85
:10416C001B013233154AA2FB03235B0903F0F00356
:10417C001944FA6813469B0013449A001A447B684E
:10418C005B689B00B2FBF3F20C4BA3FB02035B09D5
:10419C00642000FB03F3D31A1B013233074AA2FB42
:1041AC0003235B0903F00F027B681B680A449A60C7
:1041BC0000BF1037BD4680BD003801401F85EB5154
:1041CC000EB46FF0004100B59CB01DAB0290069090
:1041DC00079104910848094953F8042B059100688C
:1041EC0002A9019300F08EF90022029B1A701CB0F8
:1041FC005DF804EB03B07047A40000200802FFFF39
:10420C0003460244934200D1704703F8011BF9E7BF
:10421C00014B1868704700BFA400002070B5002641
:10422C000C4D0D4C641BA410A64209D100F07AFC75
:10423C0000260A4D0A4C641BA410A64205D170BD81
:10424C0055F8043B98470136EEE755F8043B984780
:10425C000136F2E7C44B0008C44B0008C44B0008FD
:10426C00C84B00087047704738B50546002940D048
:10427C0051F8043C0C1F002BB8BFE41800F0DCF81C
:10428C001C4A136833B9636014602846BDE8384093
:10429C0000F0D8B8A34208D9206821188B4201BF7E
:1042AC0019685B6809182160EDE71A465B680BB169
:1042BC00A342FAD911685018A0420BD120680144CE
:1042CC00501883421160E0D118685B680844106094
:1042DC005360DAE702D90C232B60D6E7206821184B
:1042EC008B4201BF19685B680918216063605460D8
:1042FC00CBE738BD8003002070B50E4E0C463168FC
:10430C00054611B900F0AAFB30602146284600F0A2
:10431C00A5FB431C0AD0C41C24F00304A04207D004
:10432C00211A284600F09AFB013001D14FF0FF34DE
:10433C00204670BD840300202DE9F843CD1C25F0E8
:10434C00030508350C2D38BF0C25002D074601DB65
:10435C00A94205D90C2300263B603046BDE8F88302
:10436C00DFF8D08000F068F8D8F800301C465CBB51
:10437C0029463846FFF7C0FF431C044655D1D8F8F0
:10438C0000402646002E45D1002C48D023683146EB
:10439C00384604EB030900F061FB81453FD12168ED
:1043AC0038466D1A2946FFF7A7FF013037D023682E
:1043BC002B442360D8F80030002B38D05A68A24226
:1043CC002BD100225A600FE02268521B1FD40B2AFB
:1043DC0017D96119A342256018BF5960636808BFDB
:1043EC00C8F8001062514B60384604F10B0600F01F
:1043FC0029F826F00706231DF21AAED09B1BA350FA
:10440C00ABE7A3426268DDD1C8F80020ECE7234695
:10441C006468ACE734467668B4E71346CCE70C2303
:10442C0038463B6000F00EF897E72560DCE75B60F0
:10443C00FFDE00BF800300200148FFF713BF00BF61
:10444C007C0300200148FFF70EBF00BF7C03002057
:10445C002DE9F0471F468E688246BE420C469046B8
:10446C000B682CD88A8912F4906F26D0656909697B
:10447C0005EB4505A3EB010905EBD5757B1C4B44FE
:10448C006D109D4238BF1D46530527D52946FFF7B1
:10449C0053FF064660B34A46216900F0FDFAA38932
:1044AC0023F4906343F08003A38126614E4426607D
:1044BC003E466561A5EB0905A560BE4200D93E46A6
:1044CC0032464146206800F0AFFA0020A3689B1BDF
:1044DC00A360236833442360BDE8F0872A4600F0CC
:1044EC00E9FA06460028E0D150462169FFF7BCFEE8
:1044FC000C23CAF80030A3894FF0FF3043F040037F
:10450C00A381E9E72DE9F04F98468B8907461B06F6
:10451C000D4614469DB00ED50B6963B94021FFF7CB
:10452C000BFF2860286120B90C233B604FF0FF3053
:10453C00D0E040236B610023099320238DF82930B0
:10454C0030234FF00109CDF80C80DFF8A0818DF8F5
:10455C002A3023469A4613F8012B0AB1252AF9D1A1
:10456C00BAEB040B0BD05B46224629463846FFF7C4
:10457C006FFF013000F0A980099A5A4409929AF809
:10458C000030002B00F0A18000234FF0FF32CDE96A
:10459C0005230AF1010A049307938DF853301A93FB
:1045AC005446052214F8011B504800F067FA049A8F
:1045BC00D8B9D00644BF20238DF85330110744BF1F
:1045CC002B238DF853309AF800302A2B15D05446F3
:1045DC0000204FF00A0C079A214611F8013B303BA2
:1045EC00092B4DD9B0B1079214E0A0EB080309FADE
:1045FC0003F31343A2460493D2E7039B191D1B68D4
:10460C000391002BBBBF5B4242F00202079307935E
:10461C00B8BF049223782E2B0CD163782A2B34D17B
:10462C00039B02341A1D1B680392002BB8BF4FF07A
:10463C00FF330593DFF8B8A003225046217800F031
:10464C001DFA38B14022049BA0EB0A0082401343B0
:10465C000134049314F8011B062226488DF8281007
:10466C0000F00CFA002838D0234B1BBB039B0733FC
:10467C0023F0070308330393099B3344099368E73A
:10468C000C4601200CFB0232A6E700234FF00A0C6B
:10469C00194601340593204610F8012B303A092AAB
:1046AC0003D9002BC6D00591C4E7044601230CFBAB
:1046BC000121F0E703AB00932A4638460F4B04A9BF
:1046CC00AFF30080421C0646D6D1AB895B063FF5A2
:1046DC002DAF09981DB0BDE8F08F03AB00932A46AF
:1046EC003846064B04A900F07DF8EBE78E4B00082A
:1046FC00944B0008984B0008000000005D44000833
:10470C002DE9F047164699468A680B69074693428D
:10471C00B8BF1346336091F843200C46DDF8208077
:10472C000AB1013333602368990642BF3368023300
:10473C003360256815F0060506D104F1190AE36803
:10474C0032689B1AAB422BDC94F84320131E226870
:10475C0018BF0123920630D44946384604F143026F
:10476C00C047013023D02368226903F00603042BD1
:10477C0014BF002533684FF0000608BFE56804F14C
:10478C001A0408BFED1A54F8123C08BF25EAE57567
:10479C009342C4BF9B1AED18B5421AD1002008E011
:1047AC000123524649463846C047013003D14FF0E9
:1047BC00FF30BDE8F0870135C1E73020E11881F802
:1047CC0043005A1C94F845102244023382F84310DB
:1047DC00C2E70123224649463846C0470130E6D09D
:1047EC000136D9E72DE9FF470F7E9146782F804699
:1047FC000C469A460C9D01F1430207D8622F0AD849
:10480C00002F00F0D580582F00F0C18004F1420534
:10481C0084F842703AE0A7F16303152BF6D801A196
:10482C0051F823F0894800089D48000819480008F1
:10483C001948000819480008194800089D48000844
:10484C0019480008194800081948000819480008B8
:10485C00A3490008C94800085D4900081948000828
:10486C0019480008C549000819480008C94800083B
:10487C001948000819480008654900082B681A1DDA
:10488C001B682A6004F1420584F842300123A0E041
:10489C0020682B68070603F10401296001D51E6806
:1048AC0003E04606FBD5B3F90060002E03DA2D2396
:1048BC00764284F843300A23594812E02B6820686A
:1048CC00191D2960050601D51E6802E04106FBD5BD
:1048DC001E886F2F0CBF08230A235148002184F82F
:1048EC0043106568002DA8BF2168A560A4BF21F006
:1048FC00040121600EB9002D4BD01546B6FBF3F127
:10490C0003FB1167C75D05F8017D3746BB420E46B8
:10491C00F4D9082B0BD12368DE0708D5236961680D
:10492C009942DEBF302305F8013C05F1FF35521BDF
:10493C0022614B4621464046CDF800A003AAFFF762
:10494C00DFFE01304AD14FF0FF3004B0BDE8F087F4
:10495C00236843F0200323607827324884F845709D
:10496C00236829681F0651F8046B02D45F0648BF00
:10497C00B6B2DF0748BF43F02003296048BF23606D
:10498C001EB9236823F0200323601023A6E72448D4
:10499C00E4E71546BDE72B682668181D6169286099
:1049AC0035061B6801D5196002E07006FBD519802D
:1049BC00002315462361BCE72B6800211A1D2A60D1
:1049CC001D686268284600F059F808B1401B606009
:1049DC0063682361002384F84330AAE72A464946DA
:1049EC0040462369D0470130ADD023689B0713D4D0
:1049FC00E068039B9842B8BF1846A6E701233246ED
:104A0C0049464046D04701309DD00135E3680399B3
:104A1C005B1AAB42F2DCEBE7002504F11906F5E773
:104A2C009F4B0008B04B0008884210B501EB020404
:104A3C0002D98442234607D8431EA14208D011F85C
:104A4C00012B03F8012FF8E7014602448A4200D1FA
:104A5C0010BD13F8014D02F8014DF7E738B50023EE
:104A6C00054D044608462B60FDF72AF9431C02D17C
:104A7C002B6803B1236038BD78030020034610B5C2
:104A8C00C9B202449342184601D1002003E00478D5
:104A9C0001338C42F6D110BD0A44914200F1FF3330
:104AAC0000D1704710B511F8014B914203F8014F3A
:104ABC00F9D110BD2DE9F041804614460E4621B9BE
:104ACC001146BDE8F041FFF737BC2AB9FFF7CCFB24
:104ADC0025462846BDE8F08100F01BF884420746C5
:104AEC0002D8B4EB500F12D821464046FFF724FCF5
:104AFC0005460028EDD0BC422246314628BF3A4636
:104B0C00FFF7CAFF31464046FFF7AEFBE1E73546FB
:104B1C00DFE751F8043C181F002BBCBF0B58C01822
:104B2C0070470000F8B500BFF8BC08BC9E46704743
:0C4B3C00F8B500BFF8BC08BC9E467047EE
:104B48005461736B49443A20256400002074696DF0
:104B5800656F75742061742025640D0000000000E5
:104B68000000000001020304060708090000000015
:104B78000102030402030405060708090A0B0C0DC9
:104B88000E0F10100102232D302B2000686C4C00F2
:104B98006566674546470030313233343536373835
:104BA8003941424344454600303132333435363793
:0C4BB8003839616263646566000000002B
:044BC40031010008B3
:044BC8000D010008D3
:104BCC000200000000400000008000000100000016
:104BDC0001000000010000000100000001000000C5
:104BEC0001000000010000000100000001000000B5
:104BFC00010000000100000001000000F4010000B1
:104C0C000A00000006000000040000000024F4006C
:104C1C001000000001000000000000004002002015
:104C2C00A80200201003002000000000000000007B
:104C3C000000000000000000000000000000000068
:104C4C000000000000000000000000000000000058
:104C5C000000000000000000000000000000000048
:084C6C000000000058000020C8
:0400000508001D458D
:00000001FF
